:400000000080002011000000491F0000491F000008B5044B1A6803F53F5302331A6001F09BFF00BFFA46004010B5054C237833B9044B13B10448AFF300800123237010BD0C
:400040009081FF1F0000000060440000084B10B51BB108490848AFF300800848036803B910BD074B002BFBD0BDE81040184700BF000000009481FF1F60440000C880FF1F2A
:400080000000000008B503F0CFFD03F0EDFD034A01231370024A137008BD00BFB481FF1FB681FF1F38B5124C03F01EFD114D23781C2202FB03521049088890804888D080FD
:4000C0008888C988108151810C4A062013700133DBB2B3FBF0F200FB1233D8B2207003F027FD074B01221A70BDE8384003F0F4BCAC81FF1F60ACFF1F4682FF1FB281FF1F10
:40010000B381FF1F08B500F097F9024B01221A7008BD00BFB081FF1F254E08B500F0B9F9344601F0FDF800F02FFB00F073F801F0F5F8204D2B78012B37D100232B70337831
:40014000092B23D8DFE803F005080B0E1114171A1D2000F0CBFA19E000F0D2FA16E000F0D0FA13E000F0CEFA10E000F0CDFA0DE000F0DEFA0AE000F0DCFA07E000F0DAFA61
:4001800004E000F0D8FA01E000F0D6FA23780133DBB2237022780A23B2FBF3F101FB1323DBB2237000F0D2FAC4E700F0EBFAC1E7B581FF1FB481FF1F40F2E631054A00201C
:4001C000138801339BB28B428ABF108013800120704700BFAE81FF1F08B503F0D3FC03F015FDBDE8084003F027BD000008B5044A0821142003F09CFDBDE8084003F08ABD63
:400200003282FF1F024B01221A6003F04DB900BF00E100E008B5FFF7DFFF62B6FFF7E6FFFFF7F0FF00F038F801210022084600F01DF900F099F9BDE808400022114610462A
:4002400000F014B907B5052822D8DFE800F003050A0C1113102300E000238DF804302A200CE0102300E000238DF80430282005E0102300E000238DF804302C208DF80510CF
:400280000023022201A903F06BFA642004F010F803B05DF804FB0000F8B5214D00242C806C80AC80EC802C816C8103F005FC41F6FF734FF480420121022001F0ADFE074696
:4002C00003F0A6FF064606230246082103F0BAFFAAB244F61061304603F0C6FF3146384603F06AFF0121384603F026FF0D4803F02BFC26460C4D7F2705F8047C2E806E80A3
:40030000AE80EE80EE82E0B27F210134FFF79AFF062C05F11C05EFD1BDE8F84003F0DCBB4682FF1FA500000064ACFF1F10B50F4C1C2202FB00429188D3880B4411895289BD
:400340000B4413440A4AC3F38F03115C0131C9B21154115C01F003011154125C0E2101FB002004EB40008381184610BD60ACFF1FB881FF1F094B03F1A8009989DA891C3399
:400380000A4433F80C1C0A4433F80A1C0A44920823F8022C9842F0D1704700BF60ACFF1F2DE9F743054602AC4FEA1219002724F8027D4FEA131808094FEA192343EA0010FB
:4003C00022462946BDF8306000F017FA4FEA181040EA09202246294680B200F00EFABDF828002246000940EA0830294680B200F004FABDF82C3036091B09300A40EA031001
:400400002246294600F0F9F93846BDF80630EE5403B0BDE8F0830000054A06480823191891F8A01099540133112BF8D1704700BF3282FF1F60ACFF1F1FB50B48B0F8A6400E
:40044000B0F85230C28E418B0294B0F88A40A830019430F83A4C0094FFF7A2FF04B0BDE81040FFF7D9BF00BF60ACFF1F10B5144600F0010080F0010003F0D0F9012003F077
:400480003DFB04F0010080F00100BDE8104003F06DBB012208B511460020FFF7E7FF40F24D1003F0EFFE002210460121FFF7DEFF40F24D1003F0E6FE012108460022FFF791
:4004C000D5FFBDE8084040F24D1003F0DBBE000070B5234C6568632D05F1010594BF01260026C72D88BF0025656026721D4D13B14FF4FA636B606B6813B11A4E013B73602F
:400500006B680BB9012300E00023012A637202D0A37A012B03D10123A372217A0DE001290BD001280BD00E4B5B7A012B0ED100F0BFF80021024608460DE0002000E0014679
:4005400042424842D2B20021C0B204E000F0B0F8002201461046BDE8704000F06DB800BFC081FF1FCC80FF1F38B50121002001F065FE40F6C41501F09FFE044638B9013D90
:400580000120ADB203F07EFE002DF4D104E001F08DFF024B01241C70204638BDCE81FF1F10B5054C237833B901F086FE18B101F07DFF0123237010BDCE81FF1F37B50023EB
:4005C0008DF8073001F0C8FFF8B1114801F0D8FF104D03B26B80C3B10F4C421C92B20C49E06F00F017FBB5F90230302BC1BF302293FBF2F3DBB28DF807309DF8073094F888
:400600006C200133134484F86C3003B030BD00BF4E82FF1FCE81FF1F30A2FF1F38B504460D4601F0A3FF012805D1A9B22046BDE8384001F073BF38BD054B21B10022197002
:400640005A70997070471A7059709870704700BFD481FF1F38B5154C012003F04FFAE57845B9284603F0DAF8284603F07FFA01232371637123790D4D43B1EA782B789A4242
:4006800004D3012003F0CAF800232B716379074D43B1EA78AB789A4204D3012003F066FA00236B71E3780233E37038BDD481FF1F014B9879704700BFD481FF1F0A494FF4D8
:4006C0007A700B8901339BB2B3FBF0F200FB12339BB2B3F5F97F0B8188BFC31A4B814B895B088B71704700BFD481FF1F034A1378013303F003031370704700BFE081FF1FA9
:40070000704770477047000010B5FFF7D7FF064C0648237842788178C078FFF7D9FE23780BB10023237010BDB081FF1FE081FF1F704770477047704708B5FFF73DFD18B1D6
:40074000BDE80840FFF72CBF08BD000010B50A4C01F038F8094800F039F823783BB1084B1878FFF7E3FDFFF705FE00232370BDE81040FFF76FBF00BFB381FF1FB081FF1FD0
:40078000B281FF1F704700007FB50A4B00220493A3F59C730393084B02210293074B08480193084B0093084B00F04DF907B05DF804FB00BF7896FF1FBC8FFF1F70A1FF1F74
:4007C00098A2FF1F009FFF1F748BFF1F10B5084B044693F86D204AB1002283F86D20054800F078F9022804BF0123237010BD00BF30A2FF1F4095FF1F7047138810B5040A42
:40080000CC5413881944487013880233138010BD10B50B88C45C18444278023302EB04200B8080B210BD138810B5040ECC541388040C0B445C701388040A0B449C70138863
:400840001944C87013880433138010BD30B50C880319055DDA78587802EB056202EB0042987804340C8002EB002030BDF8B50B460746AA2118461546302203F0E0FD03460D
:400880003846022200214FF0E90EC41BA54211D910F8014B04F11306F6B2012E01D9E92C05D103F802E010F8014C013101329C540132EAE7154C4A19E170A179D0B2013123
:4008C0002F2A6570A070A171264604D8541C5D1C1C44002107E030220021184603F0AFFD00206071F8BDA54204D015F8017F3944C9B2F8E73171ED24587003301C70C0B22E
:400900001344EE229970DA707071F8BDE881FF1F2DE9F74F06460F46924600F08BFA8146A0F1040B4FF0FF34A3454EDD621C92B2ED21304600F0B7F9431C044645D083453E
:40094000F2DB1FFA80F808F1010189B2304600F09AF9E31C034499450546E5DD9BB219463046009300F08FF9EE28009BDCD1013B9BB208F102011A4689B23046019300F014
:40098000B8F9019B00901946304600F07CF9009A8242C9D12B1D39462C449BB242463046013500F0D7F90434791C00232F440022B9420BD011F8010FE92800D11AB10AF88D
:4009C00003000133F3E70122F2E70024A0B203B0BDE8F08F037830B58B7043780BB9012300E002230B710369CA1D03F1300453F8045BA34242F8045BF9D1C3689D3103F1C4
:400A0000300253F8040B934241F8040BF9D130BD10B54478C16202630378C1F83401C2F8340134B90120087106208B70C870022105E00220087106208B70C8700121117175
:400A40009070D37010BD2DE9F8430446A360089B0025962709A890E84103E3602170627029463A46A57025716571206103F0E7FC3A462946E06803F0E2FC304600F0BAF849
:400A80006661257665764A4641462046BDE8F843FFF7BEBF70B5144606460D461A460021204603F0CCFC2670657070BD027843789A4205D2C07800F0010080F00100704798
:400AC00006D9C37813F0010F14BF03200220704703207047F7B58378002490F89E7005468DF805408DF8043090F8A06000F078FE874248D000F07AFE874238D000F070FE8B
:400B000087423BD3002000F085FEE6B286420AD23146002000F070FE874204F10104F1D10020E87045E00024012000F073FEE6B2864209D23146012000F05EFE874204F175
:400B40000104F1D101231BE00024022000F062FEE6B2864209D23146022000F04DFE874204F10104F1D105230AE0002000E006200638012894BF002001201AE00720F7E733
:400B8000EB70002015E0062305F19D07EB703846FFF78CFF02280BD87308074A03EB4303034452F82330384601A99847022000E0204603B0F0BD00BFE482FF1F70B5054635
:400BC00000790E46A8B101382871EA6829696869FFF79EFE60B10146686900F0E6F8044631462846FFF7F6FEE0B2B0FA80F04009C0B270BD4FF0FF33C0F898300023C0F846
:400C00009C30C0F8A030421E953002F8013F8242FBD17047962AF8B504460F46164630D8D0F89C50AB18962B284408DDC5F19605ADB22A4603F0F8FB2046721B791903F043
:400C4000F3FBD4F898309621002BBCBF0023C4F89830D4F89C30F21892FBF1F301FB1323D4F8A020C4F89C3016448E42D9BF0020C4F8A060C4F8A010C4F89830C8BF02205E
:400C8000F8BD0120F8BDD0F8A0309942BFBFD0F898309622C91891FBF2F3BABF02FB1311405C0020704770B5D0F8A050AA421BDCD0F898400619AA4204EB020307D196261E
:400CC00093FBF6F406FB14339B1A18440AE0952BF5DCB35C8B420AD00132ECE7835C8B4205D00132AA42F9DB4FF0FF3070BD104670BDD0F8A03030B5994229DA934227DB28
:400D0000531A002B24DDD0F8983019441A444418002391420ADB962592FBF5F405FB142291FBF5F405FB1411014407E09529F2DC14F8015B01312B44DBB2EAE70C1AA2426E
:400D400004DD11F8014B2344DBB2F7E7184630BD002030BDF8B50E461F46054618B311B3D0F8A010D3188B421DDCD0F8983096241A4492FBF4F104FB1124A1B2CB19962B64
:400D800001440ADDC4F19604A4B22246304603F04BFB3A1B2946301901E03A46304603F043FB0020F8BD0120F8BD9629F8B5044606D8D0F8A070B942D4BF0027012700E062
:400DC0000227D4F89820962928BF9621002A0D462EDB5318962B04EB02000ADDC2F1960296B23246002103F02AFBAA1B0021204601E00A46002103F022FBD4F8A0305B1B5B
:400E0000002BC4F8A03009DC4FF0FF33C4F898300023C4F89C30C4F8A03009E0D4F898100D44962195FBF1F301FB1355C4F898503846F8BDD0F8A0007047704737B50546C9
:400E400002AC042324F8023D2146FFF7FFFC21462846FFF7FBFC03B030BDFFF7EFBF07B5042302A921F8023DFFF7F0FC03B05DF804FBFFF7F4BF37B5054602AC042324F844
:400E8000023D2146FFF7E2FC21462846FFF7DEFC21462846FFF7DAFC21462846FFF7D6FC21462846FFF7D2FC03B030BDFFF7E3BF704770477047704770470000124B134AB7
:400EC000C3F8C023124AC3F8C423124AC3F8C823114AC3F8FC23114AC3F80024104AC3F80424104AC3F814240F4AC3F818240F4AC3F81C240E4AC3F808240E4AC3F80C2435
:400F00000D4AC3F810247047E482FF1FB50E0000B30E0000B70E0000B10E0000730E00005F0E00003B0E0000AD0E0000770E0000B90E00005B0E00003D0E0000704737B593
:400F4000054602AC042324F8023D2146FFF760FC21462846FFF75CFC21462846FFF758FC03B030BDFFF7EBBFFFF7E9BFFFF7E7BFFFF7E5BFFFF7E3BF704770470E4B0F4A2F
:400F8000C3F8D8230E4AC3F8DC230E4AC3F8E0230D4AC3F8E4230D4AC3F8E8230C4AC3F8EC230C4AC3F8F0230B4AC3F8F4230B4AC3F8F823704700BFE482FF1F7B0F000003
:400FC000750F0000710F0000790F00006D0F0000690F00003D0F0000650F00003F0F00007047000013B5052302A921F8023D0479FFF72CFC024B043443F8240002B010BDBB
:4010000054A8FF1F73B5042302AC24F8023D21460646FFF71BFC094D214628603046FFF715FC214668603046FFF710FC2146A8603046FFF70BFCE86002B070BD54A8FF1FF2
:40104000084B094AC3F80821084AC3F81021084AC3F81421074AC3F81C21074AC3F81821704700BFE482FF1FD1100000E10F00007111000005100000E50F000038B504464B
:401080001D4616230B7002231370FFF7D5F90F4A92F8A830237092F8A930637092F8AA30A37092F8AB30E37092F8AC30237192F8AD30637192F8AE30A37192F8AF30E3718C
:4010C00092F8B030237209232B8038BD60ACFF1F2DE9F043804689460D4F0E4E0E4D0F4C85B03B46324629462046FFF7C7FF01203B88029098F80000327800902978CDF84A
:401100000490204600F076F905B0BDE8F08300BFF881FF1FFA81FF1FFB81FF1FA8B5FF1FF7B5064602AC1F46002324F8023D17230B700E4D02231370014622462868FFF70F
:4011400072FB224631466868FFF76DFB22463146A868FFF768FB22463146E868FFF763FBBDF806303B8003B0F0BD00BF54A8FF1F2DE9F043804689460E4F0F4E0F4D104CFB
:4011800085B00023009332463B4629462046FFF7C7FF01203B88029098F80000327800902978CDF80490204600F024F905B0BDE8F08300BFF881FF1FFA81FF1FFB81FF1FB7
:4011C000A8B5FF1F704700000279084BDA7142791A7282795A72C2799A72027ADA72427A1A73827A5A73C27A9A73704704A4FF1F70477047084B094AC3F8DC22084AC3F8D5
:40120000E022084AC3F8E422074AC3F82423074AC3F82C23704700BFE482FF1FF1110000F3110000C511000069120000C911000010B543240C70022111700A4AD179017065
:40124000117A4170517A8170917AC170D17A0171117B4171517B8171927BC27108221A8010BD00BF04A4FF1F2DE9F043804689460D4F0E4E0E4D0F4C85B03B463246294642
:401280002046FFF7D5FF01203B88029098F80000327800902978CDF80490204600F0AAF805B0BDE8F08300BFF881FF1FFA81FF1FFB81FF1FA8B5FF1F704707B5042302A9B6
:4012C00021F8023DFFF7C2FA03B05DF804FB70477047704770470000094B0A4AC3F8EC21094AC3F8F021094AC3F8F421084AC3F80422084AC3F80822074AC3F80C227047F4
:40130000E482FF1FD3120000D1120000D5120000CF120000BB120000B91200007047704710B540F2F4541048104A002319181A500C33A3424A608A60F8D1FFF75BFFFFF71D
:40134000BDFDFFF71BFE00F0DBF800F07FF9FFF777FEFFF7C1FF00F0A1F900F0B1F8BDE8104000F0C3BA00BFE482FF1F1F1300002DE9F0419046079E0D461C46074600F0AA
:401380002FFA042332469DF81810FFF783FB01239845B37002D19D401D4303E0B8F1020F0DD16D00202C28BF2024F57022463946301D03F039F8201D80B2BDE8F0814FF41C
:4013C0008060FFF719FA0020BDE8F08130B58DB09DF8405003AC01940095FFF7C9FF1399C2B22046FFF742FA129B30221A800DB030BD00002DE9F0470D46914686B006AC96
:401400004FF0000E24F802ED0F9FDFF8648002949DF8384001970094CDF80C809DF84060FFF7D4FF3F784FF41C747C43DFF844A004F59C7454444146BDF81620E01D02F0C7
:40144000F3FF4FF41C7303FB07A76900B9F1010F08BF41F00101C9B287F83D11204616B900F0A6F901E000F0A4F906B0BDE8F08778B5FF1F6090FF1F704700007FB50B4BF9
:401480005B251D700A4B02220A4C1A700A4E0023237001233380029301910178204600912946FFF7A7FF04B070BD00BFFB81FF1FFA81FF1FA8B5FF1FF881FF1F70470000A3
:4014C000054B064AC3F84424054AC3F84824054AC3F84C24704700BFE482FF1F7D14000079140000BD140000704707B5052302A921F8023DFFF7AAF903B05DF804FB70475B
:40150000054B064AC3F83824054AC3F83C24054AC3F84024704700BFE482FF1FFF140000EB140000E914000070477047162809D05A2807D0432805D064381A288CBF0020AC
:401540000120704701207047F7B5037982798DF8073005463A4C3B4B22B19DF80700FFF7E5FF10B92078002125E02278012AF9D89DF8070095F805C0EF7943F8220050001C
:4015800003EB000EAEF808C02E7A2D78204445800978134419732C4B23F8227003EB820301325E80227048E09DF8072053F82150954202D001318142F6DB8142224A13D18B
:4015C00043F2390500214FF0FF3606201E601D8161801873118051805E605D81A18058739180D180217028E09DF80750FF2DE7D000290CDC5968196059891981A1886180B0
:40160000597B197391881180D1885180012143F239074FF0FF3543F821504D005E1937812544002622F821606E800B44062502EB810201381D735680207003B0F0BD00BFF4
:40164000FC81FF1FD480FF1FCCB5FF1F054B064AC3F85024054AC3F85424054AC3F85824704700BFE482FF1F2B1500004915000029150000034B82791A705A6801325A608F
:40168000704700BF0482FF1F034B41799A7A1972521A5A72704700BF0482FF1F034B044A9A61044ADA61044A1A627047E482FF1F29170000751600008916000070B502243D
:4016C0000C701D4614709DF810309DF818209DF81C6003704270F3B1104A46B11478104984702246033002F09FFE033413E09DF814400A26202C28BF202484700948147034
:4017000001780334013191FBF6F306FB1311D36801700133D3602C8070BD00BF0482FF1FD4B5FF1FE280FF1F2DE9F04F04468A4682791949302A28BF3022437987B090F8DD
:4017400004B00A70C11D1548059302F06DFE059BDFF85490DFF85480114F124D012602930023019342464B46394628460396CDF800B0FFF7A3FF20783978B9F8003000906D
:4017800098F800200296CDF804A02846FFF732FE07B0BDE8F08F00BF0482FF1FD4B5FF1FFB81FF1FA8B5FF1FF881FF1FFA81FF1F7047C378022B03D130210730FEF72EBF5D
:4017C0007047000010B5044CFEF7F8FE03492046FFF7F4F9607110BD98A2FF1F4095FF1F014B1878704700BFE380FF1F014B5878704700BFE380FF1F08B9044B02E00128B3
:4018000002D1034B585C704700207047E4B7FF1FE4B7FF1F002070477FB505460A4A037964240A481470022202700948094E03700123338001912978029300912146FFF711
:40184000D9FD04B070BD00BFFB81FF1FFA81FF1FA8B5FF1FF881FF1F70470000F0B505460F4687B006AC062324F8023D21460679FEF7ECFFBDF81630214601332846ADF8D5
:401880001630FEF7C5FF21462846FEF7C1FF21462846FEF7BDFF21462846FEF7B9FF0C4B65211970632E0B4B88BF643E4FF0020209480A4C1A7088BFF6B2012306702380C1
:4018C0002C78029301970094FFF794FD07B0F0BDFB81FF1FFA81FF1FA8B5FF1FF881FF1F70474FF40070FEF787BF0000084B094AC3F8B024084AC3F8B824084AC3F8BC24A3
:40190000074AC3F8C024074AC3F8C42400F058B9E482FF1F19180000591800005D180000E3180000E1180000F0B51AB3002507462C4611F0070318BF012303EBD1030170A4
:401940003E1AB34213DDEE1DAE420CDB8E4208DA640012F806E0E4B2BEF1000F18BF44F00104013EF0E707F8014F0835E8E7013398B2F0BD1046F0BDF0B50678964220D153
:401980000024274616F0070318BF012303EBD605A54214DD3A46013410F801EF4FEAC40CD31B6245DBB208DAB24206DA4EFA03F303F001038B540132F2E70837E8E700200E
:4019C000F0BD4FF0FF30F0BD10B51C467E230B700221117000F8011B034A0421FFF7A4FF0130208010BD00BF1882FF1F2DE9FF4104220446884610440D49FFF7BDFFA0B9BB
:401A00000C4F0D4E0D4D3B46324629460C48FFF7DBFF01203B8802902078327800902978CDF804800648FFF7E5FC04B0BDE8F0811882FF1FF881FF1FFA81FF1FFB81FF1F67
:401A4000A8B5FF1F2DE9F74F7E240C70022111700022164614461B4FDFF8708001930270E55D072D06D807EB85056D68012DB8BF012500E00125144B13F804E0BEF1000F3C
:401A800016D08C46C2EB060E05EB020A0EEB080B0EEB0209B9F10D0F0ADC1BF8029001320131924589B200F80C9001D08C46EFE70134042C2E44D3D1019B4270198003B0B7
:401AC000BDE8F08F644400001882FF1F04B8FF1FF8B59DF818500446032D1F461CD87E230B7002231370012303700C4B0C4E5B5D4570837056F8250002F0A9FC0022E07023
:401B000080B2111D824289B205DA56F825309B5C01326354F5E73980F8BD00BF64440000E880FF1F2DE9F041027986B0012A044688461F4D1F4E204F25D14379FF2B0CD170
:401B40007E232B70022333701C4B1A7004225A700E229A7003233B801BE0032B19D8012B059203D1059A02EB420203E0022B02D1059A5200059200930E4A0F4B0C490F4888
:401B8000FFF7A6FF05E03B46324629460B48FFF759FF01203B8802902078327800902978CDF804800548FFF725FC06B0BDE8F081FB81FF1FFA81FF1FF881FF1FA8B5FF1FF5
:401BC000034B044AC3F8E825034AC3F8EC257047E482FF1F251B0000ED190000052830B521D8114B012181401C78C9B221421A4619D1214319700D4951F82040084425780C
:401C0000037E2B432370837FD018407840B901EB8304646A1944257891F834102943217013440130587030BD1C82FF1FB0440000052830B523D8124B012282401978D2B231
:401C40000A421CD00F4C21EA020254F8201020441A70057E0A7822EA05020A70817F5A185378013BDBB253704BB904EB81035A6A2144137891F8341023EA0103137030BD84
:401C80001C82FF1FB0440000012809D8054B03EB8002926B1844117890F840300B431370704700BFB044000001280AD8054B03EB8002926B184490F84010137823EA0103FD
:401CC00013707047B0440000F8B572B67E4B61221A700122A3F5F0631A807C4A18230B211370518013717A4B502200241C809A70784A783392E80300062283F8002283E843
:401D00000300522203F580731A70734B734A1B78734EDBB2137040F21A72724B19251A8042F2512223F8022C33784FF4F07003F0010343EA440402F013FB013D04F00304A2
:401D40002CD0032CF0D1684B4FF480721A8007221A70664A002548211570917002221D705D7103F8032C0422DA71614A614C1378614E43F00703137012F8013C062743F06B
:401D8000030302F8013C237843F08003237092F8463343F0040382F8463300E0FEE707FB05630021B3F84620D3F84200013502F046FB0A2DF3D1514B514A524E92E80300AC
:401DC000802283E803005049504802F02DFB5048002550F8041F05F1105303F1420221F0FF074333C9B20B4452005B0002329A4206D012F802EC12F801CC0EF807C0F5E76D
:401E0000B0420D44E5D1434B0A221A70012283F88422414B414D1A68414B1A60414A137843F002031370137C43F0020313742378A2F5863243F040032370413A137843F034
:401E400010031370384B03CBC2F8400DC2F8441D93E8070003C52A80344A354B1068253343F8250C1279A5F6186503F8212C314A07CA03C31A80304A304BA2F55F6203CB79
:401E8000C2F8F00DC2F8F41D03CBC2F8141EC2F8100E137843F008031370294B02F5AA521B780C32DBB203F007011B0911705370244BF0221A704422A3F2E2231A7094E889
:401EC0000F0007C52B80F8BD004800408240004088400040A00600480F010049A146004025420040224200400440004006400040A2430040A0430040B04400000051014084
:401F0000E005004880000048E805004880160140FCFFFF4783580040A8060048C05100405076004003500140680600487C060048CB51004084060048125100409006004834
:401F4000CF010049585B004008B502F041FA03680C2B00D1FEE7FEE780B51148114B0025C0B1A3F1100192C922460439161BB74204D051F8046F42F8046BF7E7114653F826
:401F8000046C8C1AA64202D041F8045BF9E701381033E5E702F022FAFEF7BEF8FEE700BF01000000B8470000124A134B10B51A60124A134C1368134843F40073136000236A
:401FC000032B98BF54F823204FEA830188BF0E4A0133302B4250F3D10C4B1A780C4B1A700C4B084A1A60FFF76FFEBDE8104002F08DB800BF0004FA050CED00E014ED00E094
:40200000000000000080FF1F491F0000BC760040C080FF1F08ED00E073B515461E460B4C0A230022019200920A4601461846237002F0CEF832462946207802F0A5F80221D2
:40204000207802F08FF8207802B070BDF880FF1FF8B502F08DF9404A01261378022543F001031370137C3D4C43F0010313743C4B02F5E3521E700B3203F8945C13780746E9
:4020800003F07F031370002002F012F92378354A03F0F90323701378304603F0DF03137023783343237002F003F9282002F000F92D4B28461A7802F07F021A701A7802F058
:4020C000BF021A7023782B43237002F0F1F82378264A43F004032370002313703846537002F04AF90721172002F0F8F82049172002F0E6F80721182002F0F0F81D491820A1
:4021000002F0DEF80721152002F0E8F81A49152002F0D6F83046072102F0E0F81749304602F0CEF82846072102F0D8F81449284602F0C6F80721032002F0D0F81149032005
:4021400002F0BEF807210C2002F0C8F8BDE8F8400D490C2002F0B4B8A5430040944300409D60004012600040F8510040846000409F2A0000C92800009D2A0000092A000065
:40218000352A0000652A0000A52C000008B51E4B01221A705A701D4B1D4A1870002313701C4A13701C4A13701C4A13701C4A13701C4A13701C4A13701C4B4FF400021A602A
:4021C0004FF080721A604FF400121A6002221A6004221A6008221A60154B19B91A7802F0FE0202E01A7842F001021A70114B03221A70802203F8202C012002F0B1F80E4B91
:4022000004221A7008BD00BFB9B8FF1FB5B8FF1FB4B8FF1F28B8FF1F29B8FF1F2AB8FF1FB8B8FF1F2BB8FF1F27B8FF1F00E100E009600040286000401260004070B5074CE1
:40224000054623780E461BB9FFF702FF0123237031462846BDE87040FFF798BF2182FF1F0C4B01221A705A700B4A002313700B4A13700B4A13700B4A13700B4A13700B4ADC
:4022800013700B4A13700B4B03221A70802203F8202C7047B9B8FF1FB4B8FF1F28B8FF1F29B8FF1F2AB8FF1FB8B8FF1F2BB8FF1F27B8FF1F28600040014B1878704700BF62
:4022C00029B8FF1F024A0C2303FB00204078704746B8FF1F431E072B0CD8074A064B00010344805C5B7800F00F0043EA0020023880B2704700207047FC5F0040431E072B37
:40230000F0B531D8194B0C2505FB0035EC88184FA4B2C4F50074A2424FF00C0404FB003488BFEA88E67884BFC2F5007292B2104C46EA12260501EE552C44D6B2667041B9C5
:402340000C2202FB0030002343704379DBB2A370F0BD0E46074F2F44751AADB2AA42EFD916F8015B3D72F7E7F0BD00BF46B8FF1FFC5F004070600040431E072B0AD8064A75
:402380000C2303FB002300225A705A79034BD2B200011A54704700BF46B8FF1FFE5F004038B505461446D1B1431E072B19D8FFF791FFA04203D22846FFF78CFF04460A4640
:4023C00009482B011844531A9BB29C4203D9037A02F8013BF7E72846FFF7CEFF02E00C4600E00024204638BD7060004070B5094C094DFF2100230C26E25C06FB0252927A47
:40240000824204BF194602230133DBB2012BF3D0084670BD16B8FF1F46B8FF1F10B51E4C2079FFF7E3FF237813F0800F63780DD0212B2ED1BDE81040184B07221A80184A11
:40244000C0EBC0001044586000F094BADBB2202B0ED0222B1DD1A378124A22F81030124A135C43F002031354BDE8104000F062B90A4A07230A491380C0EBC0030B445360A7
:40248000094A135C43F001031354BDE8104000F097BA002010BD00BF0060004038B8FF1FF980FF1F1EB8FF1F1CB8FF1F10B5164A00231370154A164C137053702078C0B2D3
:4024C000431E072B01D8FFF757FF6078C0B2431E072B01D8FFF750FF0E4A13788BB123787BB10D4B197861B11278082A09D8084A1278082A05D81878082894BF002001206C
:4025000010BD012010BD00BF2282FF1F1CB8FF1F14B8FF1F12B8FF1F16B8FF1F0A4610B40A4B0B491B780B4CCB5C0C21DBB201FB03410C89A4B2944238BF0A8910BC014689
:4025400038BF92B21846FFF7D9BE00BF2282FF1F12B8FF1F46B8FF1F024B034A1B78D05CFFF7B0BE2282FF1F14B8FF1F024B034A1B78D05CFFF7A6BE2282FF1F12B8FF1FEA
:40258000074B084A1B780849D35C0C22DBB202FB03121289014692B21846FFF701BF00BF2282FF1F14B8FF1F46B8FF1FC37890F9020003F0030300280FDA032B15BF0C48B0
:4025C0000C4802F00103C2F3800319BFC15442F00102C15442F0040207E0032B1FBF0648C2F34003C15442F002021046704700BF12B8FF1F16B8FF1F14B8FF1F30B51A4A93
:402600001A491B4D0878138803449BB21380194A00231488D8B2A4B27CB1082B0CD050680078C0B2E85450680133013050601088013880B21080ECE718460B780E4C082BD0
:402640000E4A00D040B10E4D2B7883F080032B700F232370022301E0022323701370094B1870087030BD00BFB2B8FF1F27B8FF1F0060004038B8FF1F26B8FF1FB4B8FF1FF3
:402680002CB8FF1F44B8FF1F074B02221A70074B80221A70064B0F221A70064A00231370054A012013707047B4B8FF1F2CB8FF1F26B8FF1F27B8FF1F44B8FF1F30B5164BEF
:4026C00016491B780A8803F00F03023BDBB21A4492B20A80124C134A0020118889B279B173B15568215C013BC9B229705168DBB20131516011880130013989B21180ECE708
:40270000094A1370094A137883F080031370084B0B221A7030BD00BF29600040B2B8FF1F0060004038B8FF1F44B8FF1F2CB8FF1F26B8FF1F064A06231370064A01201370AF
:40274000054B80221A70054B00221A70704700BFB4B8FF1F26B8FF1F2CB8FF1F44B8FF1F054B9A683AB19A68044910709A680988518000229A60704738B8FF1FB2B8FF1FF0
:4027800008B5124B1A78D2B21A701B78DBB21A0602D50F4A137008BD0220FFF7E1FF0D4B1B7803F06003202B05D0402B06D043B900F0E6FC04E001F0E3FD01E000F01AFEA1
:4027C00010B9034B03221A7008BD00BF2860004026B8FF1F0060004008B5084A084B0120197813880B449BB21380064B00221A70FFF7B6FF044B03221A7008BDB2B8FF1F5A
:4028000027B8FF1FB4B8FF1F26B8FF1F08B50C4B1B78DBB2042B07D0062B09D0022B0DD1BDE80840FFF7D8BFBDE80840FFF746BF0320FFF795FF034B03221A7008BD00BF36
:40284000B4B8FF1F26B8FF1F08B5054B002201201A70FFF785FF034B03221A7008BD00BFB4B8FF1F26B8FF1F08B50A4B1A7832B11A78094942F080020A7000221A70074BE0
:40288000002201201A70FFF76BFF054B03221A7008BD00BFB8B8FF1F08600040B4B8FF1F26B8FF1F074B1B78DBB2042B05D0062B05D0022B05D1FFF7A1BEFFF7C5BFFFF768
:4028C000D3BF7047B4B8FF1F38B51D4C2378DBB2DD0634D518060AD503F00F03012B2ED1FFF74EFF174B1B78190609D538BD5A0602D5FFF7D7FF03E09D0620D5FFF786FF4B
:4029000023781B061BD4104B1A78104B1B7813430F4A13701278934211D10A4A0849154613782078DBB2000605D41378DBB20B700B7803F00F0328788342F1D138BD38BDE3
:402940002860004026B8FF1F2CB8FF1F44B8FF1F29600040054A00231380054A916819B191680B7092685380704700BFB2B8FF1F38B8FF1F0E4808B503889BB213B9FFF79D
:4029800083FE13E00B4B02221A700B4B00221A70FFF7E0FF094AD1799379028843EA012392B2934238BF0380FFF728FE012008BD38B8FF1FB4B8FF1F2CB8FF1F0060004075
:4029C00008B50C4B04221A700B4B80221A70FFF7C1FF0A4A0120D179937943EA012308490A8892B2934238BF0B80064B0B221A7008BD00BFB4B8FF1F2CB8FF1F0060004089
:402A000038B8FF1F26B8FF1F084B01221A700F3B9B7C074B1A7B02F00302012A1EBFDA7B82F08002DA7301225A7370470B60004046B8FF1F094B02221A700F3B93F8223018
:402A4000074B1A7E02F00302012A1EBFDA7E82F08002DA7601225A76704700BF0B60004046B8FF1F0B4B04221A700F3B93F83230094B93F8242002F00302012A1EBF93F8B7
:402A8000272082F0800283F82720012283F82520704700BF0B60004046B8FF1F7047FFF7DFBB000008B50B4B18780138C0B200F071F9094B09491B79DBB200EBC3004269EA
:402AC000CB5C02EBC3035B68054A596A0B781380516008BD29B8FF1F0060004034B8FF1F38B8FF1F08B50D4B18780138C0B200F051F90B4B0B491B79DBB200EBC300426936
:402B0000CB5C02EBC3035B68DB69597813F8022B42EA012204490A804B6008BD29B8FF1F0060004034B8FF1F38B8FF1F70B5194C00232380184B18780138C0B200F02AF95D
:402B40001649CB780A79DBB2D2B2012A20D8144D5E1EAD5C022EEDB21AD800EBC202526903F1005302EBC5025068013B8A7800EBC30510F83330D2B2934209D30C235343E2
:402B80006968CA185068CB5A606023809368A36070BD00BF38B8FF1F29B8FF1F0060004034B8FF1F38B53A4A13791178DBB211F0800F114633D05278013A052A66D8DFE84B
:402BC00002F0101827656503CB78212B02D1FFF769FF08E02E4BDB78222B57D1FFF782FF01E0FFF7A3FF2B4B1B889BB2002B4DD00AE0012B4AD88A78002A47D12549012233
:402C00000A80254A13444B60BDE83840FFF7B2BE012B3BD81F4901220A80204AF2E75178C9B20A290DD00B2923D009292ED1FFF77DFF184B1B889BB243B3BDE83840FFF705
:402C4000BFBE012B22D8917801F0FF00F1B9D2781149D2B2CA54124ACD5CD45CA54201D2D0540FE0D05C01280CD9C95CC9B2D15408E0012B0AD89178012907D892780749E5
:402C8000D2B2CA54BDE83840FFF754BD002038BD0060004038B8FF1FBDB8FF1FB9B8FF1FBBB8FF1F01F026B970B50446184B88B003AA03F11006154618685968083303C5A8
:402CC000B3422A46F7D11B782B70FCB12223237001AD03232846637001F00AFB002220461146AB5C08AC04EB131414F8144C03F00F03847008AC234413F8143C0132082AF9
:402D0000C1700371417100F10400EAD108B070BD2E4500002DE9F0411A4D01222E460C2080274FF0080E184B00FB025C14012344187016499CF805802144B8F1000F07D09B
:402D40009CF8044024064CBF887081F802E000E08F7000FB0261CC880132E4B29C71CC88092AC4F30724DC71CC88E4B21C71C988C1F307215971D6D1054BFF221A70BDE821
:402D8000F08100BF46B8FF1F70600040FC5F00400A600040064B074A1B7802EBC30253681A7C824286BF03EBC003586900207047B5B8FF1F7C4500002DE9F84F424B1A7820
:402DC000002A7ED01878414D0138C0B2FFF7E2FFA8463F4AC3681478007ADFF800C1E4B203EBC0000C2600274FF0010E834268D01A78A24263D11CF80420597891425ED1DE
:402E00009A7893F8039002F07F0206FB02FA05EB0A01CF7093F802B009F0030981F804B093F803B005F80AB0B3F804A0A1F808A093F902A0BAF1000F0BDAB9F1010F0CBF72
:402E40004FF007094FF00D0981F8059081F801E009E0B9F1010F0CBF4FF005094FF0090981F805904F704FEA02191A4906FB0282494481F802E0B2F808A0CAF3072A81F890
:402E800000A0B2F808A05FFA8AFA81F801A0B2F806A011495FFA8AFA494481F806A0B2F80690C9F3072981F80790B2F806905FFA89F981F80490D288C2F307224A71083364
:402EC00094E7BDE8F88F00BF29B8FF1F46B8FF1F2AB8FF1FFC5F00407060004034B8FF1F08B5064B18780138C0B2FFF753FF20B143681B7900EBC300406908BD29B8FF1FE0
:402F00002DE9F74F00210B46544E0C2707FB01F501317219092973554FF000049370DFF83C91D3701381937253705371EED128B14B4A4C4B14701C7054705C704A4B1A7867
:402F4000002A00F08880187801270138C0B2FFF721FF80464368057ADB79ED0013F0400F424B4FF0000C1A784FF00C0A14BF42F0010202F0FE021A700AFB0796D8F80C4032
:402F8000FBB204EB050B5C453AD0A07800F07F01B94233D13189B4F804E089B2714538BFA6F808E021782E4A94F801E0515C8E4524D13071E178317094F90200E1780028DD
:402FC00001F0030106DA01290CBF07210D217171012105E001290CBF05210921717100217170A17901F0F701022907D16246194620460193FFF7DAFA8446019B0834C2E783
:403000000137092FB8D1D8F80C200A35931C15440C210833AB4209D013F8082C13F80A0C02F07F0201FB02929072F2E7FFF758FF0F4B0122186000230C2000FB0291CB807E
:40304000098901320B44092A9BB2F6D103B0BDE8F04FFFF75FBE03B0BDE8F08F46B8FF1F34B8FF1F24B8FF1F29B8FF1F2BB8FF1F30B8FF1F114B1B7903F07F035A1E072A40
:4030800019D80F490C2202FB031291781B0141F0010191700021D170517841F002015170127912F0800F074A1A4414BF8D2389239370FFF73FBB0020704700BF00600040EB
:4030C00046B8FF1FFC5F004030B4184B1A7902F07F02531E072B25D8154B0C2000FB02339978144C01F0FE0199700021D970120110497F25155511445A7802F0FD025A7040
:403100001A795B78120605D5012B01D1887006E00D2303E0012B0CBF082309238B7030BCFFF708BB002030BC704700BF0060004046B8FF1FFC5F004010B50D4B0D4C217971
:403140001878C9B20138C0B2FFF724FE43681B798B4201D2022909D8074A0848535CDBB24354A3780120DBB2535410BD002010BD29B8FF1F0060004034B8FF1F24B8FF1F55
:4031800038B58A4A8A4C13780021DBB221801806517840F18D800A2900F20681DFE811F05D00040104010401040104010B0004017E0004018200D3787C49012B09D17D4B9C
:4031C0001A787D4B03EBC2035B685B686360122310E0CB78022B12D18878FFF7DBFD002800F0E280436863606368DA7863689B7843EA02232380BDE83840FFF7BBBBCB788F
:40320000032B26D16D4B00228878D5B2854209D3664A91786A4AEE2908BF1346634A917881B106E0187801320028F1D018780344EAE764499278097C914203D16248FFF71C
:4032400033FD614B1A78002A00F0AE801A78228018E0BDE8384001F093B813F0030313D0022B40F0A1802380504B0C211B7903F07F02564B01FB02339A78554BD2B21A70A4
:4032800000225A706360B6E702222280514A11784F4AC9B2117053706260ACE7012323804D4BEFE70123238013794C4A1344E9E701390A2978D8DFE801F037774F77067780
:4032C00077770A7720009378454ADBB25AE0937803F0FF0153B9404B1A78914260D01970404B01201870FFF70BFE59E0481EC0B2FFF750FD0028EED156E0FFF71DFF00284D
:4033000052D02A4A384913791279DBB2D2B20A70364A3249D25CCB5C9A4241D0314B01221A70FFF749FD3BE003F00303012B2BD009D3022B38D11D4B9B78002B34D1BDE895
:403340003840FFF7C1BE194B9B78012B2CD1214A137803F0FD0315E003F00303012B13D008D3022B20D1114B9B78EBB9BDE83840FFF780BE0D4B9B78012B15D1154A137816
:4033800043F0020313700BE0084B1A79012A0BD898781B791649DBB2CA5C22EA0002CA54BDE83840FFF7C6B9002038BD0060004038B8FF1FB5B8FF1F7C4500001646000094
:4033C000684500000E470000EBB8FF1F46B8FF1F2382FF1F2BB8FF1F29B8FF1F34B8FF1FB8B8FF1F28B8FF1F2AB8FF1F24B8FF1FB6B8FF1F074B1A78120609D55B78012B36
:4034000006D1054B054A5A6012781A80FFF7B2BA002070470060004038B8FF1F4045000038B5144B002401251C7083F8115100F09FFF114A137843F01003137000F09CFF05
:403440000E4B0F221A7008221A740D4B05211D60204600F043FF0B49204600F031FF0A4B10221A70094B1C70094B1C70094B1C7038BD00BF7664004097650040276500408C
:4034800080E100E0CD340000BFB8FF1FC2B8FF1FC4B8FF1FC0B8FF1F024A137843F00203137070477664004010B5064C23781BB9FFF7B6FF01232370FFF7EEFF024B0122CF
:4034C0001A6010BD2582FF1F00E100E030B59649964B1B780A78DBB212F0400F0A4600F01C81D80740F1058109784539052900F20081DFE811F006006E00FE00FE00060016
:40350000C10003F0DF0103F00A03082B35D113788548452B25D1864B1B789BB1854B864C1B681B78DBB22370844B06241C70FF2483F89E40002483F8DE40814B01241C703D
:40354000462318E07F4B1B7803F0020303F0FF048BB37D4C237843F00A0323706023037025E0764B02241C70FF2483F89E40002483F8DE404A230370BAE00A2B40F0B8806C
:40358000714B187840F0A00018706E48007800F0020000F0FF0470B110781C7810F0080F14BF09200A202043187060231370674B012018609CE06648037843F02003037030
:4035C0005E4B52201870FF2083F89E0083F8DE408EE003F0020101F0FF0400292DD158485349057809788D4214D2524D01782D68C9B2695C504DC9B22970504906250D700A
:40360000FF2581F89E5081F8DE4001780131C9B201706EE04B49097801F0020101F0FF0421B14948017841F00A014CE04848017841F020010170522052E04249087842493C
:4036400000F0020000F0FF0520B1087840F09A00087039E03E4C207840F020002070374852240470FF2480F89E4080F8DE50087840F0900008703CE0364C374825682E4C52
:4036800001782478C9B2E4B26C5401780131C9B20170324900780978884209D2274902200870FF2081F89E00002081F8DE0020E02449097801F0020101F0FF0451B122487B
:4036C000017841F009010170602111701F49012008600EE01E48017841F020010170122016490870FF2081F89E0081F8DE4000E00B46990616D51378134913F0080F087810
:4037000014BF0123022303430B7011490B7803F0DF030B701023137030BD0B78DB065CBF10230B7030BD00BFBFB8FF1F67650040C3B8FF1FC8B8FF1F046500407664004068
:40374000C0B8FF1FC1B8FF1FC2B8FF1F80E100E087650040CCB8FF1FC4B8FF1FD0B8FF1F70B5A9B1214C2578102D05D1204D2D78ED060FD5012070BD2578602D08D11D4DF5
:4037800001262E601C4E357805F0F705357001E0022070BD45252570184D00242C70184D40002A70174AC0B21160174A124913700A7813F0010302F0FD020A70134A1449E3
:4037C0001070A2F18E02134805D032231370FF230B70047004E082241470FF220A7003700D4B01221A60002070BD00BFBFB8FF1F6765004080E200E0C2B8FF1FC0B8FF1FDF
:40380000C3B8FF1FC8B8FF1FC1B8FF1F04650040146500405465004000E100E0044A8000137800F0040003F0FB03034313707047C0510040394B34222DE9F0471A700024BA
:403840004FF0060804229A7083F803803F221C715C7143441A70012550229C70DC701C719D7383F87E2A0A2283F87F2A2C2283F8802A442283F8814A83F8842A482283F8D4
:40388000852A4FF00209122283F8865A83F8889A83F8892A282283F88A2AEB2283F88B2A00F066FD82461E4F1E4E3B78522243F003033B703378032043F0030333701A4BF1
:4038C0001A7000F0F5FC3B78504603F0FC033B70337803F0FC03337000F04EFD134BC0221A7003225A7005229A71204683F807901C725C7200F014FB43F233320C4B2946DE
:4039000040461A6000F018FB2946192000F084FBBDE8F04707491D2000F0D2BC004E0040F8460040F94600409258004094580040D4B8FF1FF93A000070B5244D244E00249C
:403940000123102033702C7000F05CFB102000F0D3FB07211D2000F0C1FC1E4B04221A701D4A5C701C72137843F0180313701B4B0A221C7083F8F54283F8F642133B1A70DC
:403980005B225C70DC701A725E225A725C731422A3F67F231A700F232B7148F6F0536B80337815F823200E4B1A70337805EB830333F8022C0B4B1A803378AC71012B03D186
:4039C000BDE87040FFF736BF70BD00BF2682FF1F1181FF1F96580040075B0040935800400E4E00400C4E004070B500F0C1FC294B294D1B78294B2A4C1A78064642F00102A8
:403A00001A701A78032042F010021A701A7C42F001021A741A7C42F010021A742B78214A43F002032B70237843F002032370137843F00303137000F03BFC2B781A4A03F009
:403A4000FD032B702378304603F0FD032370137843F006031370154B7A221A70144A137843F002031370137C43F002031374537843F004035370537C43F0040353740D4A63
:403A80004FF000531360A2F5C0721360BDE8704000F072BC1181FF1FF8460040AA430040F9460040915800407758004082580040A143004080E200E010B5064CE3792BB969
:403AC000237A0BB9FFF738FF0123E371BDE81040FFF78ABF2682FF1F024A137843F0010313707047004E0040024A137803F0FE0313707047004E004070470000044AC00098
:403B0000137800F0080003F0F703034313707047C051004010B50024E0B20134FEF788F8062CF9D1014BFF221A7010BD1281FF1F10B50446FFF7EEFF2046FEF74FF8014BCE
:403B40001C7010BD1281FF1F064A1023136002F688321268E0211065034A1170A2F541721360704780E100E004E400E0044A00F00100137803F0FE0318431070704700BF49
:403B800000510040144A137803F001031370937803F0FC039370114B1A7802F0CF021A701A7842F030021A701A7802F0F0021A701A7842F00F021A70094A137843F00103E2
:403BC000137040F69F73A2F80330A2F80530054B08221A70704700BF004F00400B4F0040014F0040034F0040074A137843F001031370137C43F00103137492F85D3B43F061
:403C0000010382F85D3B7047A343004008B505490B781BB9FFF7B6FF01230B70BDE80840FFF7E2BF2F82FF1F014B1878704700BF034F0040FCF726BA084A4FF400331360A0
:403C400002F6883212680649C2F88410054AC02111706FF444710A441360704780E100E0353C000011E400E0024B4FF400321A60704700BF80E200E0124B412210B51A70B0
:403C8000C12203F80E2C662203F80C2C00240C225A719C710C4B4FF400421A6007210F2000F01CFB09490F2000F00AFB084B1C70084B1C70084B1C70084B1C70084B1C8072
:403CC00010BD00BFD649004080E100E0793D0000E9B8FF1FEAB8FF1FDCB8FF1FE8B8FF1FE0B8FF1F08B500F043FB084A137843F004031370137C43F00403137400F03CFB41
:403D0000034B4FF400421A6008BD00BFA543004000E100E010B5054C23781BB9FFF7ACFF01232370BDE81040FFF7DCBF3082FF1F0A4B10B54FF400441C602AB1084B1A60D1
:403D4000084B1880084B1980084A00231370084A1370084B4FF400421A6010BD80E100E0E4B8FF1FDEB8FF1FE0B8FF1FDCB8FF1FE8B8FF1F00E100E070B5FCF7C3F9524B79
:403D80001978C9B201F0080000F0FF0258B34F4D4F492A784F4C12F0010F17D04E484F4E02783668D2B2B25CD2B22A7014221A7002784B48D2B2027002780132D2B2027037
:403DC0000A7842F011020A70082229E010221A700A7842F012020A700122424922700A7842F0100249E0C8075CD53A4C2078C0B2042817D0082829D001284DD133493A4811
:403E000009780088C9B2394D80B28142297048D210221A702A7830490A7031490A70042222703FE02E4932480C78008880B2844237D2264A2D481278284C027010221A70A5
:403E40000A7824680078D2B2A05413E011F0020F1E4818D12249244A0C78128892B294420DD21E4C0A782468D2B2A25CD2B2027004221A700A780132D2B20A7012E0FF229A
:403E8000027004220DE0FF21017011481A70017801F0EF010170C3E70F4922700A7010490A701A701B789B060CD5094A137803F0EF031370074B00221A700A4A137803F0A8
:403EC000EF03137070BD00BFD7490040D8490040EAB8FF1FE9B8FF1FDCB8FF1FE4B8FF1FE8B8FF1FD6490040DEB8FF1F3182FF1FE0B8FF1F024B1878C0F38010704700BFC7
:403F00008F45004008B50020FDF7CEFE0120FDF7CBFE024BFF221A7008BD00BF1381FF1F10B50446FFF7EEFF2046FDF7ADFE014B1C7010BD1381FF1FF0B52C4D2C4E2F7837
:403F4000348807F00707A4B2A0424DD0294B1A78D2B26FB934B158B92B7843F040032B703080F0BD30802B7803F0BF032B70F0BD02F0040202F0FF060AB31F4F1F4A00257A
:403F80004FF0040E157087F800E03D7117F8085C05F07F0507F8085C144D2D782D0700D568B9174D2C8007241470147814F00104FBD11A7802F0FB021A70104A14701B7803
:403FC0000C4A5C070BD50E4B0029188014BF03220122013B1A701A78D207FCD4F0BD044B1880137833431370F0BD00BF8A40004088400040A2430040104000400140004026
:4040000002400040034A00F0F800137803431370704700BF8A4000402DE9F041304C314E94F800C035880CF0070CADB2A842A646374653D02C4B1A78D2B2BCF1000F0FD19D
:404040003DB168B9237843F0400323703080BDE8F0813080237803F0BF032370BDE8F08102F0020202F0FF061AB3DFF888C01F4A00244FF0020814708CF800800CF8044C93
:404080001CF80C4C04F07F040CF80C4C9EF80040240700D568B9164C258007241470147814F00104FBD11A7802F0FD021A700F4A14701B780C4A9C070CD50D4B0029188043
:4040C00014BF03220122013B1A701A78D207FCD4BDE8F0813880137833431370BDE8F0810641004004410040A1430040014000400240004014400040034A00F0F8001378B5
:4041000003431370704700BF06410040074A7F23802113705170064A013BDBB202F80839002BF9D1034A1370704700BF1481FF1FF87B00400078004017280FD8084B0001BA
:40414000C25C11B142F0200201E002F0DF02C254C25C42F00102C25400207047012070471070004017280BD8064A0001835C490003F0F10301F00E011943815400207047DF
:40418000012070471070004041F6FF73994208BF4FF400519A4208BF4FF4005217289FBFC00000F1804000F5EC4081809ABFC280002001207047000017289FBF034B0001A1
:4041C0001954002088BF0120704700BF19700040172810B51AD8C00001F07F0100F1804441EAC21204F5EC44D2B222709DF8082003F00F0343EA0213DBB263709DF80C303C
:40420000002003F00F03A370E07010BD012010BD10B500F0ADF80A4A5378182B0AD91478013B5370E30003F1804303F5F0431B78137000E0FF2400F09FF8204610BD00BFBA
:404240001481FF1F30B504060CD411F4704509D1C40004F1804404F5F0442180A270E370284630BD012030BD03065FBFC00000F1804000F5F04081805ABFC28000200120B5
:404280007047000038B50446084DB4F5004F05D9286800F065F8A4F50044F6E7034B58686043BDE8384000F05BB800BF1C81FF1F024B1B7A584300F053B800BF1C81FF1F11
:4042C000054A00F01F00126800F1100352F8230042F82310704700BF08ED00E000F01F0000F16040490100F56440C9B201707047134B144A1B78DBB20360127843EA02237C
:40430000114A0360127843EA0243104A0360127843EA026303600E4B0E4A1B78DBB24360127843EA02230C4A4360127843EA02430A4A4360127843EA02634360704700BF16
:404340000301004904010049EC46004002010049010100490001004905010049060100490230800803D000BF01380046FCD17047EFF3108072B6704780F31088704700BF8F
:40438000104A137803F00303012B0AD0022B0BD113790C2103F07F020B4B01FB02339B7A00E01379DBB200E00023084A1268D35C022B03D0032B03D1FEF7F4BBFEF72EB8CF
:4043C000002070470060004046B8FF1F30B8FF1F014B1868704700BF8C81FF1F0E4B70B51E460E4C0025E41AA410A54204D056F8253098470135F8E700F0C4F9084B094CFD
:404400001E46E41AA4100025A54204D056F8253098470135F8E770BD9047000090470000904700009847000010B5431E0A44914204D011F8014B03F8014FF8E710BD0346AE
:404440000244934202D003F8011BFAE77047034613F8012B002AFBD1181A0138704700000000000001010102040000000400000002000000020000000100000001000000F5
:40448000FFFFFFFFFFFFFFFF7661726961626C6531007661726961626C6532007661726961626C6533007661726961626C6534003D5100403D5100403D5100403D510040EA
:4044C0003D5100403D510040010204081020000102030001005B0040005B0040005B0040005B004010204080035B0040244300404000C84900401900004F00400C00205183
:404500000040100040510040300000000140001000140140800200170140000500400140000A004C0140000200500140200030313233343536373839414243444546000038
:404540002800000000010400010000000000000000014359555342000000303030303100000000000000000012034D005300460054003100300030000100000001000000B3
:4045800084450000010000000E4700000000000000000000010000009C45000001000000CB46000003000000C64500000000000000000000000000000000000000000000DA
:4045C000C4450000020A00008103080002000100820240000A000100030240000A00320005010902A1010901A10005091901290315002501950375018102950175058101B7
:404600000501093009311581257F750895028106C0C0000002030403090428034D00490054002000420069006F006D006500630068006100740072006F006E0069006300B7
:4046400073003803430044004300200043006F006D006D0075006E00690063006100740069006F006E00200049006E007400650072006600610063006500260343004400EB
:40468000430020004400610074006100200049006E0074006500720066006100630065002A0346006C00650078005300450041002D0036002D00630068002D0041006D00A1
:4046C0007000200030002E0031000009024300020101C032090400000102020002052400100104240202052406000105240100010705810308000A09040100020A000003C3
:4047000007058202400000070503024000001201000202000008B40408000100010480010000000000000000000000000000000000000000000000000000000000000000F2
:404740000000000000000000000000000000000000000000000000000000000000000000000000000000000000000000000000000000000000000000000000000000000039
:4047800043000000F8B500BFF8BC08BC9E4670474D000000A91F0000F8B500BFF8BC08BC9E46704729000000B8470000C880FF1FC800000080370000000000000100000095
:4047C000D0070000FFFFFFFFFFFFFFFF010001000606FF460A00000088440000924400009C440000A6440000FF00C2010000000800C20100000008A12000000000020000C9
:404800000001FFFF7F8000000004000000005898B03001004E000000802FA604000000002047000040470000604700000000000000000000000000000000000080470000A2
:404840000000000000000000000000000000000000000000000000000000000000000000000000000000000000000000000000000000000000000000000000002C81FF1F6D
:4048800000000000000000000000000000000000000000000000000000000000000000000000000000000000000000000000000000000000000000000000000000000000F8
:4048C00000000000000000000000000000000000000000000000000000000000000000000000000000000000000000000000000000000000000000000000000000000000B8
:404900000000000000000000000000000000000000000000000000000000000000000000000000000000000000000000000000000000000000000000000000000000000077
:404940000000000000000000000000000000000000000000000000000000000000000000000000000000000000000000000000000000000000000000000000000000000037
:020000040003F7
:0200000480007A
:400000000145004001490040014F0040035200400365004004030140570401402E0501404D0601404407014002090140040D0140040E0140010F01405A1401404E150140D6
:40004000181601404C17014001190140011B0140064001400B4101400A420140054301400544014008450140084601400B470140094801400E4901400A4C0140064D0140FC
:400080000A5001407E02D6400A4B602261307C482404270F37089810B010E602EA05014603A904200540060207130C260F011025110E120A1330142115331604170C1808BA
:4000C0001A051C402001212A2222235425802610275628212A022C0F2DFF301F31FF366038803E405608580459045B045C115D905F01800381CC83138448854D860287920A
:4001000088018B028C4F8DA58F4A9042911A920993609440950296149A019BB59C039DFF9E20A040A20BA304A490A504A60BA801A9A9AB54AC1FAF01B21FB3FFB4E0B82099
:40014000BE10BF04D804D904DC01DF010104031106080751082009080A420C800D480E44108911081421151B19011A411C081D081F08208021012504282129012E8A2F08F8
:4001800031083301342035043640370139863D153E605890810483409810C0F5C2FFC4FFCAFBCCF3CEFBD60C0004010302E005010608080109010C3D0D220EC20F0510E249
:4001C000117F150316FF185D19081AA21B071C0D1D101F072092214022602307240125012840293A2A1D2B042D052E022F78337F34FF3E103F0452F6580459045B045D10BB
:400200005F018101821C83068408850186148702921D940896309B08A014A208AA1EAC08AE20B002B103B238B304B404B601B708BA08BE10D608D804D904DB04DC11DD908F
:40024000DF0103A0058507090AA00C910D040E800F021001128013101440150216221710180419021AA01B801F102281231025042D802E082F483320344135043710380145
:400280003B043E643F02441045085B4060016E2476AA770885048740910292419508960699019C019D049EAA9F11A044A108A308A480A640ACC8C0FCC2FCC4FBCAF0CCF426
:4002C000CEF3D608D808E002EE02E002EE02A801E602E801EA24B980BF40D904DF012401020F05010604080F0E0812081502160217041D021F0421012201260F280F300F55
:400300003301350739283E013F144062440345D046B0480A49FF4A7F4BFF4C424DA04E70500C580459045A045D015F0161096240630964306509801C8202840686208801FC
:400340008B198C028D189002911092189348941896069719982099189B039C019D089E1E9F30A03FA318A40AA610A704A804AB19AC12AD08AE08AF22B138B220B307B41FC7
:40038000B540B820BB0AD608D804D904DB04DC11DD90DF0100A00102021103100514064209080A400B800D080E480F0112C013141522169119011D1420042208251127544F
:4003C000284029012D102E802F503004310832803406375038083CA04004430448844A0451105C806402848089108A808B048D10900891029240933599029A029C449D046D
:400400009E419F10A054A108A280A480A511A608A921B201B308C0FFC2FCC4FECAF1CCFACE32D006D204D610D810E240E620EA0107020D190F04140115041738190D1B1052
:400440001D1C1F01210125092714291C2D052F203001353C37033B20580459045C115F0100080280030A09280A040B020D010EA010101120120119401A801B2A1E801F011C
:400480002030210423052680270928102A412C042D402E062F0130603109341036803718381839403C803D0842014A08502459205A825B0860846140812082408340900448
:4004C000924193309508970499039A029C809D049F51A044A10CA210A480A640A720B480C00FC227C407CAFBCC7FCE5ED008D204D60FD80DEA10EE02EE02EA01334234025A
:4005000036403B40CCF0CE101340840297409B049C029F40A640AB06C440E640EAA01B043E103F085B049B049F40A640C610CEA0D640878096109F40A640E0401010150180
:400540007D20C40CDE01848091019810A740A910AB40B010EA043C083D014502910198109C80A740D00108800B400F808502910198109C80A502A740AC04C20E2780830268
:4005800096109F80AE40B740C880E480EE401302141070087D40841088088D409F02AA10C430DC80DE20E440EA8010401320148078107D0191019810AF40C40EDE03784070
:4005C0007C8098C0AB20DC01DE040002010102140A020B011002110112141A021B010000AB0300C00C00000056000000078008000444380800FF0100000000085610000212
:40060000500F0400078020200000001854000214000080005010060103003C80803F404080A8080000004000610000000000500218FFFFFF42A07000081000002000040063
:400640000404040411110001004840488048804800000000000000000000000000000000000000000000000000010100000008003300000C3F0033000030000000200000DC
:40068000000000004000080000000000C0000000000B0B00000000000000000000003F004D00180118001801000A000000000000000000000000000000000000000000003C
:4006C00000000000000000000000000000000000000000000000000000000000000000000000000000000000000000000000000000000000000000000000000000000000FA
:4007000000000000000000000000000000000000000000000000000000000000000000000000000000000000000000000000000000000000000000000000000000000000B9
:400740000000000000000000000000000000000000000000000000000000000000000000000000000000000000000000000000000000000000000000000000000000000079
:400780000000000000000000000000000000000000000000000000000000000000000000000000000000000000000000000000000000000000000000000000000000000039
:0200000490006A
:0400000000004005B7
:0200000490105A
:04000000BC90ACAF55
:0200000490303A
:020000001BD310
:0200000490402A
:4000000000000000000000000000000000000000000000000000000000000000000000000000000000000000000000000000000000000000000000000000000000000000C0
:400040000000000000000000000000000000000000000000000000000000000000000000000000000000000000000000000000000000000000000000000000000000000080
:400080000000000000000000000000000000000000000000000000000000000000000000000000000000000000000000000000000000000000000000000000000000000040
:4000C0000000000000000000000000000000000000000000000000000000000000000000000000000000000000000000000000000000000000000000000000000000000000
:0200000490501A
:0C00000000012E16106900012E332C3C6C
:00000001FF